:100000000C942A000C9434000C9434000C943400AA
:100010000C9434000C9434000C9434000C94340090
:100020000C9434000C9434000C9434000C94340080
:100030000C9434000C9434000C9434000C94340070
:100040000C9434000C9434000C9434000C94340060
:100050000C94340011241FBECFE5D8E0DEBFCDBF25
:100060000E9488000C94BD000C940000DF93CF9395
:10007000CDB7DEB7CF91DF910895DF93CF93CDB7A2
:10008000DEB7CF91DF910895DF93CF93CDB7DEB781
:10009000CF91DF910895DF93CF93CDB7DEB780E0A6
:1000A000CF91DF910895DF93CF930F92CDB7DEB755
:1000B00082E3898389810F90CF91DF910895DF9347
:1000C000CF9300D0CDB7DEB780E092E09A838983EA
:1000D00089819A810F900F90CF91DF910895DF93DE
:1000E000CF930F92CDB7DEB789830F90CF91DF9179
:1000F0000895DF93CF930F92CDB7DEB789830F902A
:10010000CF91DF910895DF93CF93CDB7DEB7FFCFC7
:10011000DF93CF9300D000D0CDB7DEB71C820E9412
:1001200044000E944B00882349F08C818F5F8C83B0
:100130008C818330B0F30E948300F3CF0E94530080
:100140008B830E945F009A8389838B818F3120F09B
:1001500081E00E94790003C080E00E9479008981DB
:100160009A8122E08030920720F081E00E946F00A7
:0E017000E5CF80E00E946F00E1CFF894FFCF52
:00000001FF
